:100000000C9459000C9481000C9481000C94810094
:100010000C9481000C9481000C9481000C9481005C
:100020000C9481000C9481000C9481000C9481004C
:100030000C9481000C9481000C9481000C9481003C
:100040000C94D2000C9481000C9443020C94860210
:100050000C9481000C9481000C9481000C9481001C
:100060000C948E060C948100000000070002010031
:100070000003040600000000000000000102040864
:100080001020408001020408102001020408102002
:10009000040404040404040402020202020203032E
:1000A0000303030300000000250028002B00420387
:1000B000AB0511241FBECFEFD8E0DEBFCDBF11E0EE
:1000C000A0E0B1E0E2E9F0E102C005900D92A034B9
:1000D000B107D9F712E0A0E4B1E001C01D92A33B43
:1000E000B107E1F710E0C2EBD0E004C02297FE01B7
:1000F0000E944308CE3AD107C9F70E9498030C9496
:1001000047080C94000040E855E260E070E089E4A4
:1001100091E00E94C10283EF91E00E94710561E0CD
:1001200071E089E491E00C940004CF93DF93609137
:10013000000183EF91E00E948B0560E083EF91E086
:100140000E94310583EF91E00E94A80560910001B3
:1001500041E050E070E083EF91E00E94880583EF7A
:1001600091E00E94DE04EC018038910534F080E0DB
:1001700091E09C012C1B3D0BE90162E171E089E4F7
:1001800091E00E9400044AE050E0BE0189E491E061
:100190000E94BB0468E873E180E090E0DF91CF91BA
:1001A0000C9446011F920F920FB60F9211242F93B9
:1001B0003F938F939F93AF93BF9380914001909112
:1001C0004101A0914201B091430130914801232F98
:1001D0002D5F2D3720F40196A11DB11D05C0232FE1
:1001E0002A570296A11DB11D20934801809340011A
:1001F00090934101A0934201B09343018091440147
:1002000090914501A0914601B09147010196A11D31
:10021000B11D8093440190934501A0934601B09392
:100220004701BF91AF919F918F913F912F910F9077
:100230000FBE0F901F9018950F931F939FB7F894C0
:1002400000914401109145012091460130914701F0
:1002500086B5A89B06C08F3F21F00F5F1F4F2F4F21
:100260003F4F9FBF322F212F102F0027080F111D46
:10027000211D311D42E0000F111F221F331F4A951F
:10028000D1F7B801C9011F910F910895CF92DF9264
:10029000EF92FF92CF93DF936B017C010E941C01D0
:1002A000EB010EC00E941C016C1B7D0B683E73406D
:1002B00038F081E0C81AD108E108F108C851DC4FD4
:1002C000C114D104E104F10469F7DF91CF91FF90EB
:1002D000EF90DF90CF900895789484B5826084BDCC
:1002E00084B5816084BD85B5826085BD85B581603A
:1002F00085BDEEE6F0E0808181608083E1E8F0E09A
:100300001082808182608083808181608083E0E8C8
:10031000F0E0808181608083E1EBF0E080818460A7
:100320008083E0EBF0E0808181608083EAE7F0E0A9
:10033000808184608083808182608083808181600D
:1003400080838081806880831092C1000895FC01C1
:1003500084859585FC01E05CFF4F20813181FC01A3
:10036000EE5BFF4F80819181281B390B2F73332760
:10037000C9010895FC0184859585FC01E05CFF4F6F
:1003800040815181FC01EE5BFF4F2081318142179A
:10039000530741F00190F081E02DE80FF91F208113
:1003A00030E002C02FEF3FEFC9010895FC018485C2
:1003B0009585FC01E05CFF4F40815181FC01EE5BC3
:1003C000FF4F208131814217530781F0A081B18115
:1003D000A80FB91F8C91208131812F5F3F4F2F7360
:1003E000332731832083282F30E002C02FEF3FEFE7
:1003F000C9010895FC0181A1882329F0A489B58948
:100400008C9186FFFBCF11A20895CF93DF93FC015F
:1004100026853785D901A05CBF4F8D919C9111979E
:1004200001968F739927E901CE5BDF4F488159818F
:1004300084179507D9F30D90BC91A02DA20FB31F7F
:100440006C93A685B785A05CBF4F11969C938E9345
:10045000A689B7892C9181E090E0078C02C0880FB3
:10046000991F0A94E2F7282B2C9381E081A304883A
:10047000F589E02D80818064808381E090E0DF91C8
:10048000CF91089508951F920F920FB60F921124E5
:100490002F933F934F938F939F93EF93FF9380916D
:1004A000C00082FD1CC04091C6008091EF01909178
:1004B000F00101968F7399272091F1013091F2019B
:1004C0008217930771F0E091EF01F091F001E1558F
:1004D000FE4F40839093F0018093EF0102C0809122
:1004E000C600FF91EF919F918F914F913F912F9176
:1004F0000F900FBE0F901F90189589E491E00E9415
:10050000A701892B11F00C94420208951F920F92BB
:100510000FB60F9211242F933F938F939F93EF93D6
:10052000FF932091AB013091AC018091AD0190918E
:10053000AE012817390731F48091C1008F7D809377
:10054000C10014C0E091AD01F091AE01E559FE4F3C
:1005500020818091AD019091AE0101968F73992712
:100560009093AE018093AD012093C600FF91EF916F
:100570009F918F913F912F910F900FBE0F901F90E1
:100580001895CF92DF92EF92FF92CF93DF93EC0119
:100590006A017B01411581EE580761057105F9F08B
:1005A000EC89FD8981E090E008A002C0880F991FC6
:1005B0000A94E2F7808360E079E08DE390E0A701A0
:1005C00096010E941F082150310941095109569591
:1005D000479537952795211580E1380798F0EC89E4
:1005E000FD89108260E874E88EE190E0A701960131
:1005F0000E941F082150310941095109569547951C
:1006000037952795E889F9893083EA89FB89208322
:1006100019A2EE89FF89408181E090E09C010C8C59
:1006200002C0220F331F0A94E2F7422B4083EE8967
:10063000FF8940819C010D8C02C0220F331F0A9458
:10064000E2F7422B4083EE89FF8940819C010E8CAA
:1006500002C0220F331F0A94E2F7422B4083EE8937
:10066000FF8920810F8C02C0880F991F0A94E2F73E
:10067000809582238083DF91CF91FF90EF90DF9070
:10068000CF90089510924C0110924B0188EE93E0A8
:10069000A0E0B0E080934D0190934E01A0934F01F4
:1006A000B093500184E291E090934A018093490114
:1006B0008FEA91E090935601809355018BE691E08B
:1006C000909358018093570185EC90E090935A01E4
:1006D0008093590184EC90E090935C0180935B01DE
:1006E00080EC90E090935E0180935D0181EC90E05E
:1006F0009093600180935F0182EC90E0909362019F
:100700008093610186EC90E0909364018093630193
:1007100084E08093650183E08093660187E08093A5
:10072000670185E08093680181E080936901089505
:100730000E946C010E948300CDE7D2E00E949500E8
:100740002097E1F30E947D02F9CFCF92DF92EF92E2
:10075000FF920F931F93CF93DF936C01EB017A010C
:10076000E60EF71E00E010E00BC06991D601ED9196
:10077000FC910190F081E02DC6010995080F191F29
:10078000CE15DF0591F7C801DF91CF911F910F9131
:10079000FF90EF90DF90CF9008956115710581F083
:1007A000DB010D900020E9F7AD0141505109461BD6
:1007B000570BDC01ED91FC910280F381E02D09944F
:1007C00080E090E00895DC01ED91FC910190F081D2
:1007D000E02D09940F931F93CF93DF93EC016DE00D
:1007E0000E94E3038C016AE0CE010E94E3039C01B6
:1007F000200F311FC901DF91CF911F910F910895F3
:100800000F931F93CF93DF93EC010E94CD038C01D4
:10081000CE010E94EA039801280F391FC901DF9118
:10082000CF911F910F9108954F925F926F927F9297
:100830009F92AF92BF92CF92DF92EF92FF920F936F
:100840001F93CF93DF93CDB7DEB7A1970FB6F89480
:10085000DEBF0FBECDBF5C016A017B01922E19A2E3
:1008600081E0821710F08AE0982E8E010F5D1F4FF5
:10087000492C512C612C712CC701B601A3019201A6
:100880000E941F088C2D929E80191124015011097D
:100890008A3010F4805D01C0895CF80180836901B1
:1008A0007A01C114D104E104F10431F7B801C501A2
:1008B0000E94CD03A1960FB6F894DEBF0FBECDBF48
:1008C000DF91CF911F910F91FF90EF90DF90CF902C
:1008D000BF90AF909F907F906F905F904F900895E2
:1008E000CF92DF92EF92FF920F931F93CF93DF93FC
:1008F000EC016A017B012115310579F4E881F98168
:100900000190F081E02D642FDF91CF911F910F9125
:10091000FF90EF90DF90CF9009942A30310519F4C1
:1009200077FD0EC02AE0B701A601CE01DF91CF917D
:100930001F910F91FF90EF90DF90CF900C941404D3
:100940006DE20E94E3038C0144275527BA014C193C
:100950005D096E097F092AE0CE010E941404080F88
:10096000191FC801DF91CF911F910F91FF90EF9058
:10097000DF90CF9008950F931F93CF93DF93EC01F7
:100980009A01AB01662757FD6095762F0E9470048F
:100990008C01CE010E94EA039801280F391FC9017A
:1009A000DF91CF911F910F9108952091230230E0A4
:1009B00080912402281B3109C901089580912402E5
:1009C00090912302891750F4E82FF0E0EB5DFD4F82
:1009D000208130E08F5F8093240202C02FEF3FEF31
:1009E000C9010895E091240280912302E81730F4B0
:1009F000F0E0EB5DFD4F208130E002C02FEF3FEFD4
:100A0000C90108950895CF92DF92EF92FF920F935C
:100A10001F93CF93DF937C01CB018A012091FF01CB
:100A2000222391F0EB016B01C40ED51E09C0699120
:100A3000D701ED91FC910190F081E02DC70109955E
:100A4000CC15DD05A1F703C0642F0E946506C8011F
:100A5000DF91CF911F910F91FF90EF90DF90CF909A
:100A60000895CF93DF931F92CDB7DEB769832091AE
:100A7000FF012223D1F020910002203240F021E03A
:100A800030E0FC013383228320E030E015C0809108
:100A90000102E82FF0E0EE5FFD4F998190838F5FB8
:100AA000809301028093000205C061E0CE010196AF
:100AB0000E94650621E030E0C9010F90DF91CF91DF
:100AC0000895FC011382128248EE53E060E070E06A
:100AD000448355836683778384E391E091838083A5
:100AE0000895109224021092230210920102109293
:100AF00000020C94AF05862F413208F040E265E217
:100B000072E00E94CD051092240280932302089582
:100B100021E00C947B0581E08093FF016093220229
:100B2000109201021092000208950F93062F21E007
:100B30004091000262E072E0809122020E9412065F
:100B400010920102109200021092FF010F9108957D
:100B500061E00C94950583EF91E00C94610510928F
:100B60004E0281E080934C0210924B0261E082E1E0
:100B70000E94E80761E083E10E94E807E9EBF0E00A
:100B800080818E7F808380818D7F808388E48093C5
:100B9000B80085E48093BC000895413208F03FC05E
:100BA00090914E029111FCCF91E090934E022093D0
:100BB0004C022FEF2093450210924A02242F21501D
:100BC0002093490290934D0290914D02880F892BFA
:100BD00080934D0280914B02813041F410924B0280
:100BE00080914D028093BB0085EC01C085EE80931F
:100BF000BC0080914E028130E1F380914A0284175B
:100C000010F440914A022FE432E0FB01D90102C006
:100C10008D9181938A2F821B8417D0F301C040E00D
:100C2000842F08950F93413208F046C090914E02F0
:100C30009111FCCF92E090934E0200934C029FEFF3
:100C40009093450210924A0240934902FB016FE4DF
:100C500072E0DB0102C091919D939A2F961B94172D
:100C6000D0F310924D0290914D02880F892B809302
:100C70004D0280914B02813041F410924B028091E1
:100C80004D028093BB0085EC01C085EE8093BC00D3
:100C9000222321F080914E028230E1F380914502BF
:100CA0008F3F61F080914502803251F08091450282
:100CB000803341F483E007C081E005C080E003C0D9
:100CC00082E001C084E00F910895613298F4209190
:100CD0004E02243089F460934702FC018FE692E0D3
:100CE000DC0102C021912D932A2F281B2617D0F357
:100CF00080E0089581E0089582E0089585ED809375
:100D0000BC008091BC0084FDFCCF10924E0208957F
:100D100085EC8093BC0010924E0208951F920F92B2
:100D20000FB60F9211242F933F934F935F936F93BE
:100D30007F938F939F93AF93BF93EF93FF93809194
:100D4000B900887F803609F49FC058F5883209F4CD
:100D50005BC090F4803109F452C038F4882309F460
:100D6000F8C0883009F0F9C04AC0883109F44CC095
:100D7000803209F0F2C05CC0803409F46BC038F4F2
:100D8000803309F455C0883309F0E7C054C080357A
:100D900009F454C0883509F462C0883409F0DDC014
:100DA000DAC0883909F4CBC0A8F4883709F46CC0DC
:100DB00038F4883609F468C0803709F0CEC064C0C2
:100DC000883809F4BCC0803909F464C0803809F05F
:100DD000C4C060C0803B09F48AC038F4803A09F48A
:100DE0006BC0883A09F0B9C082C0803C09F4ABC03E
:100DF000883C09F4A8C0883B09F0AFC08DC0809141
:100E00004D028093BB0012C090914A02809149022A
:100E1000981788F580914A02E82FF0E0E15BFD4FDA
:100E200090819093BB008F5F80934A0285EC88C0CD
:100E30008093450290C08093450256C080914A023B
:100E40009091BB00E82FF0E0E15BFD4F90838F5F56
:100E500080934A0290914A02809149026DC080912C
:100E60004A029091BB00E82FF0E0E15BFD4F9083D8
:100E70008F5F80934A0280914C0281116CC081E0A7
:100E800080934B0284EA60C083E080934E0210920C
:100E90004602CCCF80914602803208F050C080914B
:100EA00046029091BB00E82FF0E0ED56FD4F908395
:100EB0008F5F80934602BACF80914602803230F431
:100EC000E0914602F0E0ED56FD4F10820E947E0652
:100ED00060914602E0918F02F091900270E083E908
:100EE00092E00995109246020E94880636C084E07E
:100EF00080934E021092480210924702E0919102B4
:100F0000F0919202099580914702811105C081E01C
:100F10008093470210926F0280914802E82FF0E020
:100F2000E159FD4F90819093BB008F5F8093480201
:100F30009091480280914702981708F477CF85E88E
:100F40008093BC000AC085EC8093BC0010924E02D6
:100F500004C0109245020E947E06FF91EF91BF915E
:100F6000AF919F918F917F916F915F914F913F9141
:100F70002F910F900FBE0F901F901895833069F03E
:100F800028F48130A1F0823011F514C08630B1F020
:100F90008730C1F08430D9F404C0809180008F770D
:100FA00003C0809180008F7D80938000089584B578
:100FB0008F7702C084B58F7D84BD08958091B00085
:100FC0008F7703C08091B0008F7D8093B00008952B
:100FD0000F931F93CF93DF931F92CDB7DEB7282FC8
:100FE00030E0F901E859FF4F8491F901E458FF4FCF
:100FF0001491F901E057FF4F04910023D1F08823A9
:1010000021F069830E94BE076981E02FF0E0EE0FB6
:10101000FF1FEC55FF4F85919491DC019FB7F89429
:101020008C91611103C01095812301C0812B8C9399
:101030009FBF0F90DF91CF911F910F910895A1E273
:101040001A2EAA1BBB1BFD010DC0AA1FBB1FEE1F42
:10105000FF1FA217B307E407F50720F0A21BB30B8D
:10106000E40BF50B661F771F881F991F1A9469F709
:1010700060957095809590959B01AC01BD01CF0165
:101080000895EE0FFF1F0590F491E02D0994F89458
:02109000FFCF90
:101092004B5374617274757020436F6D706C65741C
:1010A20065005468652074656D702069733A20008C
:1010B200000000000502A503A701D601BA01FA014A
:1010C2000000000031050305D504DE04F204020528
:00000001FF
